{
  "_format": "hh-sol-artifact-1",
  "contractName": "Whitelist",
  "sourceName": "contracts/Whitelist.sol",
  "abi": [
    {
      "inputs": [
        {
          "internalType": "uint16",
          "name": "_whitelistAllowed",
          "type": "uint16"
        }
      ],
      "stateMutability": "nonpayable",
      "type": "constructor"
    },
    {
      "anonymous": false,
      "inputs": [
        {
          "indexed": false,
          "internalType": "address",
          "name": "newPerson",
          "type": "address"
        }
      ],
      "name": "allPeople",
      "type": "event"
    },
    {
      "inputs": [
        {
          "internalType": "address",
          "name": "_addPerson",
          "type": "address"
        }
      ],
      "name": "addWhiteListPrivate",
      "outputs": [],
      "stateMutability": "nonpayable",
      "type": "function"
    },
    {
      "inputs": [],
      "name": "addWhiteListPublic",
      "outputs": [],
      "stateMutability": "nonpayable",
      "type": "function"
    },
    {
      "inputs": [
        {
          "internalType": "address",
          "name": "_get",
          "type": "address"
        }
      ],
      "name": "viewPeople",
      "outputs": [
        {
          "internalType": "bool",
          "name": "",
          "type": "bool"
        }
      ],
      "stateMutability": "view",
      "type": "function"
    },
    {
      "inputs": [
        {
          "internalType": "address",
          "name": "",
          "type": "address"
        }
      ],
      "name": "whiteListPeople",
      "outputs": [
        {
          "internalType": "bool",
          "name": "",
          "type": "bool"
        }
      ],
      "stateMutability": "view",
      "type": "function"
    },
    {
      "inputs": [],
      "name": "whitelistAllowed",
      "outputs": [
        {
          "internalType": "uint16",
          "name": "",
          "type": "uint16"
        }
      ],
      "stateMutability": "view",
      "type": "function"
    }
  ],
  "bytecode": "0x608060405234801561001057600080fd5b50604051610812380380610812833981810160405281019061003291906100aa565b80600060146101000a81548161ffff021916908361ffff160217905550336000806101000a81548173ffffffffffffffffffffffffffffffffffffffff021916908373ffffffffffffffffffffffffffffffffffffffff160217905550506100f8565b6000815190506100a4816100e1565b92915050565b6000602082840312156100bc57600080fd5b60006100ca84828501610095565b91505092915050565b600061ffff82169050919050565b6100ea816100d3565b81146100f557600080fd5b50565b61070b806101076000396000f3fe608060405234801561001057600080fd5b50600436106100575760003560e01c80630b25635b1461005c5780631973149b1461008c5780639070a380146100bc578063d572a3f9146100da578063e408af0c146100e4575b600080fd5b61007660048036038101906100719190610476565b610100565b6040516100839190610550565b60405180910390f35b6100a660048036038101906100a19190610476565b610156565b6040516100b39190610550565b60405180910390f35b6100c4610176565b6040516100d191906105cb565b60405180910390f35b6100e261018a565b005b6100fe60048036038101906100f99190610476565b6102ae565b005b6000600160008373ffffffffffffffffffffffffffffffffffffffff1673ffffffffffffffffffffffffffffffffffffffff16815260200190815260200160002060009054906101000a900460ff169050919050565b60016020528060005260406000206000915054906101000a900460ff1681565b600060149054906101000a900461ffff1681565b60011515600160003373ffffffffffffffffffffffffffffffffffffffff1673ffffffffffffffffffffffffffffffffffffffff16815260200190815260200160002060009054906101000a900460ff161515141561021e576040517f08c379a00000000000000000000000000000000000000000000000000000000081526004016102159061056b565b60405180910390fd5b60018060003373ffffffffffffffffffffffffffffffffffffffff1673ffffffffffffffffffffffffffffffffffffffff16815260200190815260200160002060006101000a81548160ff0219169083151502179055507f8e9a57b6e23ada6eeee9a4d8a32652859375223665f36a515a8bab841bcc7189336040516102a49190610535565b60405180910390a1565b3373ffffffffffffffffffffffffffffffffffffffff1660008054906101000a900473ffffffffffffffffffffffffffffffffffffffff1673ffffffffffffffffffffffffffffffffffffffff161461033c576040517f08c379a0000000000000000000000000000000000000000000000000000000008152600401610333906105ab565b60405180910390fd5b60011515600160008373ffffffffffffffffffffffffffffffffffffffff1673ffffffffffffffffffffffffffffffffffffffff16815260200190815260200160002060009054906101000a900460ff16151514156103d0576040517f08c379a00000000000000000000000000000000000000000000000000000000081526004016103c79061058b565b60405180910390fd5b60018060008373ffffffffffffffffffffffffffffffffffffffff1673ffffffffffffffffffffffffffffffffffffffff16815260200190815260200160002060006101000a81548160ff0219169083151502179055507f8e9a57b6e23ada6eeee9a4d8a32652859375223665f36a515a8bab841bcc7189816040516104569190610535565b60405180910390a150565b600081359050610470816106be565b92915050565b60006020828403121561048857600080fd5b600061049684828501610461565b91505092915050565b6104a8816105f7565b82525050565b6104b781610609565b82525050565b60006104ca6018836105e6565b91506104d582610643565b602082019050919050565b60006104ed6011836105e6565b91506104f88261066c565b602082019050919050565b60006105106009836105e6565b915061051b82610695565b602082019050919050565b61052f81610615565b82525050565b600060208201905061054a600083018461049f565b92915050565b600060208201905061056560008301846104ae565b92915050565b60006020820190508181036000830152610584816104bd565b9050919050565b600060208201905081810360008301526105a4816104e0565b9050919050565b600060208201905081810360008301526105c481610503565b9050919050565b60006020820190506105e06000830184610526565b92915050565b600082825260208201905092915050565b600061060282610623565b9050919050565b60008115159050919050565b600061ffff82169050919050565b600073ffffffffffffffffffffffffffffffffffffffff82169050919050565b7f796f752061726520696e207468652077686974656c6973740000000000000000600082015250565b7f20696e207468652077686974656c697374000000000000000000000000000000600082015250565b7f6e6f74206f776e65720000000000000000000000000000000000000000000000600082015250565b6106c7816105f7565b81146106d257600080fd5b5056fea264697066735822122024f67f5b9dd9697cef81becf57646d85979c4706351efdc97369fc491770731e64736f6c63430008040033",
  "linkReferences": {},
  "deployedLinkReferences": {}
}